{
  "_format": "hh-sol-artifact-1",
  "contractName": "UniswapV3SingleHopSwap",
  "sourceName": "contracts/Swap.sol",
  "abi": [
    {
      "inputs": [
        {
          "internalType": "uint256",
          "name": "amountIn",
          "type": "uint256"
        },
        {
          "internalType": "uint256",
          "name": "amountOutMin",
          "type": "uint256"
        }
      ],
      "name": "swapExactInputSingleHop",
      "outputs": [],
      "stateMutability": "nonpayable",
      "type": "function"
    },
    {
      "inputs": [
        {
          "internalType": "uint256",
          "name": "amountOut",
          "type": "uint256"
        },
        {
          "internalType": "uint256",
          "name": "amountInMax",
          "type": "uint256"
        }
      ],
      "name": "swapExactOutputSingleHop",
      "outputs": [],
      "stateMutability": "nonpayable",
      "type": "function"
    }
  ],
  "bytecode": "0x608060405234801561001057600080fd5b50610b5e806100206000396000f3fe608060405234801561001057600080fd5b50600436106100365760003560e01c8063c9eb5e5a1461003b578063e4eaab9614610057575b600080fd5b61005560048036038101906100509190610723565b610073565b005b610071600480360381019061006c9190610723565b610457565b005b735bd8c11a3bd527b3858578c4a6cbc88180db27c573ffffffffffffffffffffffffffffffffffffffff166323b872dd3330846040518463ffffffff1660e01b81526004016100c4939291906107b3565b6020604051808303816000875af11580156100e3573d6000803e3d6000fd5b505050506040513d601f19601f820116820180604052508101906101079190610822565b50735bd8c11a3bd527b3858578c4a6cbc88180db27c573ffffffffffffffffffffffffffffffffffffffff1663095ea7b37368b3465833fb72a70ecdf485e0e4c7bd8665fc45836040518363ffffffff1660e01b815260040161016b92919061084f565b6020604051808303816000875af115801561018a573d6000803e3d6000fd5b505050506040513d601f19601f820116820180604052508101906101ae9190610822565b5060006040518060e00160405280735bd8c11a3bd527b3858578c4a6cbc88180db27c573ffffffffffffffffffffffffffffffffffffffff16815260200173757e5390b30d3a9de5782da5dd040c2c7a02dbc173ffffffffffffffffffffffffffffffffffffffff168152602001610bb862ffffff1681526020013373ffffffffffffffffffffffffffffffffffffffff168152602001848152602001838152602001600073ffffffffffffffffffffffffffffffffffffffff16815250905060007368b3465833fb72a70ecdf485e0e4c7bd8665fc4573ffffffffffffffffffffffffffffffffffffffff16635023b4df836040518263ffffffff1660e01b81526004016102bd9190610951565b6020604051808303816000875af11580156102dc573d6000803e3d6000fd5b505050506040513d601f19601f820116820180604052508101906103009190610981565b90508281101561045157735bd8c11a3bd527b3858578c4a6cbc88180db27c573ffffffffffffffffffffffffffffffffffffffff1663095ea7b37368b3465833fb72a70ecdf485e0e4c7bd8665fc4560006040518363ffffffff1660e01b815260040161036e9291906109f3565b6020604051808303816000875af115801561038d573d6000803e3d6000fd5b505050506040513d601f19601f820116820180604052508101906103b19190610822565b50735bd8c11a3bd527b3858578c4a6cbc88180db27c573ffffffffffffffffffffffffffffffffffffffff1663a9059cbb3383866103ef9190610a4b565b6040518363ffffffff1660e01b815260040161040c92919061084f565b6020604051808303816000875af115801561042b573d6000803e3d6000fd5b505050506040513d601f19601f8201168201806040525081019061044f9190610822565b505b50505050565b735bd8c11a3bd527b3858578c4a6cbc88180db27c573ffffffffffffffffffffffffffffffffffffffff166323b872dd3330856040518463ffffffff1660e01b81526004016104a8939291906107b3565b6020604051808303816000875af11580156104c7573d6000803e3d6000fd5b505050506040513d601f19601f820116820180604052508101906104eb9190610822565b50735bd8c11a3bd527b3858578c4a6cbc88180db27c573ffffffffffffffffffffffffffffffffffffffff1663095ea7b37368b3465833fb72a70ecdf485e0e4c7bd8665fc45846040518363ffffffff1660e01b815260040161054f92919061084f565b6020604051808303816000875af115801561056e573d6000803e3d6000fd5b505050506040513d601f19601f820116820180604052508101906105929190610822565b5060006040518060e00160405280735bd8c11a3bd527b3858578c4a6cbc88180db27c573ffffffffffffffffffffffffffffffffffffffff16815260200173757e5390b30d3a9de5782da5dd040c2c7a02dbc173ffffffffffffffffffffffffffffffffffffffff168152602001610bb862ffffff1681526020013373ffffffffffffffffffffffffffffffffffffffff168152602001848152602001838152602001600073ffffffffffffffffffffffffffffffffffffffff1681525090507368b3465833fb72a70ecdf485e0e4c7bd8665fc4573ffffffffffffffffffffffffffffffffffffffff166304e45aaf826040518263ffffffff1660e01b815260040161069f9190610b0d565b6020604051808303816000875af11580156106be573d6000803e3d6000fd5b505050506040513d601f19601f820116820180604052508101906106e29190610981565b50505050565b600080fd5b6000819050919050565b610700816106ed565b811461070b57600080fd5b50565b60008135905061071d816106f7565b92915050565b6000806040838503121561073a576107396106e8565b5b60006107488582860161070e565b92505060206107598582860161070e565b9150509250929050565b600073ffffffffffffffffffffffffffffffffffffffff82169050919050565b600061078e82610763565b9050919050565b61079e81610783565b82525050565b6107ad816106ed565b82525050565b60006060820190506107c86000830186610795565b6107d56020830185610795565b6107e260408301846107a4565b949350505050565b60008115159050919050565b6107ff816107ea565b811461080a57600080fd5b50565b60008151905061081c816107f6565b92915050565b600060208284031215610838576108376106e8565b5b60006108468482850161080d565b91505092915050565b60006040820190506108646000830185610795565b61087160208301846107a4565b9392505050565b61088181610783565b82525050565b600062ffffff82169050919050565b61089f81610887565b82525050565b6108ae816106ed565b82525050565b6108bd81610763565b82525050565b60e0820160008201516108d96000850182610878565b5060208201516108ec6020850182610878565b5060408201516108ff6040850182610896565b5060608201516109126060850182610878565b50608082015161092560808501826108a5565b5060a082015161093860a08501826108a5565b5060c082015161094b60c08501826108b4565b50505050565b600060e08201905061096660008301846108c3565b92915050565b60008151905061097b816106f7565b92915050565b600060208284031215610997576109966106e8565b5b60006109a58482850161096c565b91505092915050565b6000819050919050565b6000819050919050565b60006109dd6109d86109d3846109ae565b6109b8565b6106ed565b9050919050565b6109ed816109c2565b82525050565b6000604082019050610a086000830185610795565b610a1560208301846109e4565b9392505050565b7f4e487b7100000000000000000000000000000000000000000000000000000000600052601160045260246000fd5b6000610a56826106ed565b9150610a61836106ed565b9250828203905081811115610a7957610a78610a1c565b5b92915050565b60e082016000820151610a956000850182610878565b506020820151610aa86020850182610878565b506040820151610abb6040850182610896565b506060820151610ace6060850182610878565b506080820151610ae160808501826108a5565b5060a0820151610af460a08501826108a5565b5060c0820151610b0760c08501826108b4565b50505050565b600060e082019050610b226000830184610a7f565b9291505056fea264697066735822122072c5570913014402fb80c2cb7b52b0a4fd153d348ec2ae28e7a8d3624b67ca3564736f6c63430008180033",
  "linkReferences": {},
  "deployedLinkReferences": {}
}